{
  "contractName": "web3ClubsToken",
  "abi": [
    {
      "inputs": [],
      "stateMutability": "nonpayable",
      "type": "constructor"
    },
    {
      "anonymous": false,
      "inputs": [
        {
          "indexed": true,
          "internalType": "address",
          "name": "_owner",
          "type": "address"
        },
        {
          "indexed": true,
          "internalType": "address",
          "name": "_spender",
          "type": "address"
        },
        {
          "indexed": false,
          "internalType": "uint256",
          "name": "_value",
          "type": "uint256"
        }
      ],
      "name": "Approval",
      "type": "event"
    },
    {
      "anonymous": false,
      "inputs": [
        {
          "indexed": true,
          "internalType": "address",
          "name": "previousOwner",
          "type": "address"
        },
        {
          "indexed": true,
          "internalType": "address",
          "name": "newOwner",
          "type": "address"
        }
      ],
      "name": "OwnershipTransferred",
      "type": "event"
    },
    {
      "anonymous": false,
      "inputs": [
        {
          "indexed": true,
          "internalType": "address",
          "name": "_from",
          "type": "address"
        },
        {
          "indexed": true,
          "internalType": "address",
          "name": "_to",
          "type": "address"
        },
        {
          "indexed": false,
          "internalType": "uint256",
          "name": "_amount",
          "type": "uint256"
        }
      ],
      "name": "Transfer",
      "type": "event"
    },
    {
      "inputs": [
        {
          "internalType": "address",
          "name": "",
          "type": "address"
        },
        {
          "internalType": "address",
          "name": "",
          "type": "address"
        }
      ],
      "name": "allowance",
      "outputs": [
        {
          "internalType": "uint256",
          "name": "",
          "type": "uint256"
        }
      ],
      "stateMutability": "view",
      "type": "function"
    },
    {
      "inputs": [
        {
          "internalType": "address",
          "name": "",
          "type": "address"
        }
      ],
      "name": "balanceOf",
      "outputs": [
        {
          "internalType": "uint256",
          "name": "",
          "type": "uint256"
        }
      ],
      "stateMutability": "view",
      "type": "function"
    },
    {
      "inputs": [],
      "name": "decimalFactor",
      "outputs": [
        {
          "internalType": "uint256",
          "name": "",
          "type": "uint256"
        }
      ],
      "stateMutability": "view",
      "type": "function"
    },
    {
      "inputs": [],
      "name": "decimals",
      "outputs": [
        {
          "internalType": "uint256",
          "name": "",
          "type": "uint256"
        }
      ],
      "stateMutability": "view",
      "type": "function"
    },
    {
      "inputs": [],
      "name": "owner",
      "outputs": [
        {
          "internalType": "address",
          "name": "",
          "type": "address"
        }
      ],
      "stateMutability": "view",
      "type": "function"
    },
    {
      "inputs": [],
      "name": "renounceOwnership",
      "outputs": [],
      "stateMutability": "nonpayable",
      "type": "function"
    },
    {
      "inputs": [],
      "name": "symbol",
      "outputs": [
        {
          "internalType": "string",
          "name": "",
          "type": "string"
        }
      ],
      "stateMutability": "view",
      "type": "function"
    },
    {
      "inputs": [],
      "name": "tokenName",
      "outputs": [
        {
          "internalType": "string",
          "name": "",
          "type": "string"
        }
      ],
      "stateMutability": "view",
      "type": "function"
    },
    {
      "inputs": [],
      "name": "totalSupply",
      "outputs": [
        {
          "internalType": "uint256",
          "name": "",
          "type": "uint256"
        }
      ],
      "stateMutability": "view",
      "type": "function"
    },
    {
      "inputs": [
        {
          "internalType": "address",
          "name": "newOwner",
          "type": "address"
        }
      ],
      "name": "transferOwnership",
      "outputs": [],
      "stateMutability": "nonpayable",
      "type": "function"
    },
    {
      "inputs": [
        {
          "internalType": "address",
          "name": "_to",
          "type": "address"
        },
        {
          "internalType": "uint256",
          "name": "_value",
          "type": "uint256"
        }
      ],
      "name": "transfer",
      "outputs": [
        {
          "internalType": "bool",
          "name": "success",
          "type": "bool"
        }
      ],
      "stateMutability": "nonpayable",
      "type": "function"
    },
    {
      "inputs": [
        {
          "internalType": "address",
          "name": "_spender",
          "type": "address"
        },
        {
          "internalType": "uint256",
          "name": "_value",
          "type": "uint256"
        }
      ],
      "name": "approve",
      "outputs": [
        {
          "internalType": "bool",
          "name": "success",
          "type": "bool"
        }
      ],
      "stateMutability": "nonpayable",
      "type": "function"
    },
    {
      "inputs": [
        {
          "internalType": "address",
          "name": "_from",
          "type": "address"
        },
        {
          "internalType": "address",
          "name": "_to",
          "type": "address"
        },
        {
          "internalType": "uint256",
          "name": "_value",
          "type": "uint256"
        }
      ],
      "name": "transferFrom",
      "outputs": [
        {
          "internalType": "bool",
          "name": "success",
          "type": "bool"
        }
      ],
      "stateMutability": "nonpayable",
      "type": "function"
    },
    {
      "inputs": [],
      "name": "mintToken",
      "outputs": [],
      "stateMutability": "view",
      "type": "function"
    }
  ],
  "bytecode": "0x60806040526040518060400160405280600e81526020017f77656233436c756273546f6b656e000000000000000000000000000000000000815250600190805190602001906200005192919062000215565b506040518060400160405280600381526020017f5743540000000000000000000000000000000000000000000000000000000000815250600290805190602001906200009f92919062000215565b506012600355600354600a620000b6919062000452565b600455600454620f4240620000cc9190620004a3565b600555348015620000dc57600080fd5b50620000fd620000f16200014960201b60201c565b6200015160201b60201c565b600554600660003373ffffffffffffffffffffffffffffffffffffffff1673ffffffffffffffffffffffffffffffffffffffff1681526020019081526020016000208190555062000568565b600033905090565b60008060009054906101000a900473ffffffffffffffffffffffffffffffffffffffff169050816000806101000a81548173ffffffffffffffffffffffffffffffffffffffff021916908373ffffffffffffffffffffffffffffffffffffffff1602179055508173ffffffffffffffffffffffffffffffffffffffff168173ffffffffffffffffffffffffffffffffffffffff167f8be0079c531659141344cd1fd0a4f28419497f9722a3daafe3b4186f6b6457e060405160405180910390a35050565b828054620002239062000533565b90600052602060002090601f01602090048101928262000247576000855562000293565b82601f106200026257805160ff191683800117855562000293565b8280016001018555821562000293579182015b828111156200029257825182559160200191906001019062000275565b5b509050620002a29190620002a6565b5090565b5b80821115620002c1576000816000905550600101620002a7565b5090565b7f4e487b7100000000000000000000000000000000000000000000000000000000600052601160045260246000fd5b60008160011c9050919050565b6000808291508390505b600185111562000353578086048111156200032b576200032a620002c5565b5b60018516156200033b5780820291505b80810290506200034b85620002f4565b94506200030b565b94509492505050565b6000826200036e576001905062000441565b816200037e576000905062000441565b8160018114620003975760028114620003a257620003d8565b600191505062000441565b60ff841115620003b757620003b6620002c5565b5b8360020a915084821115620003d157620003d0620002c5565b5b5062000441565b5060208310610133831016604e8410600b8410161715620004125782820a9050838111156200040c576200040b620002c5565b5b62000441565b62000421848484600162000301565b925090508184048111156200043b576200043a620002c5565b5b81810290505b9392505050565b6000819050919050565b60006200045f8262000448565b91506200046c8362000448565b92506200049b7fffffffffffffffffffffffffffffffffffffffffffffffffffffffffffffffff84846200035c565b905092915050565b6000620004b08262000448565b9150620004bd8362000448565b9250817fffffffffffffffffffffffffffffffffffffffffffffffffffffffffffffffff0483118215151615620004f957620004f8620002c5565b5b828202905092915050565b7f4e487b7100000000000000000000000000000000000000000000000000000000600052602260045260246000fd5b600060028204905060018216806200054c57607f821691505b60208210810362000562576200056162000504565b5b50919050565b610ff480620005786000396000f3fe608060405234801561001057600080fd5b50600436106100ea5760003560e01c806370a082311161008c57806395d89b411161006657806395d89b4114610229578063a9059cbb14610247578063dd62ed3e14610277578063f2fde38b146102a7576100ea565b806370a08231146101d1578063715018a6146102015780638da5cb5b1461020b576100ea565b806323b872dd116100c857806323b872dd14610147578063313ce567146101775780636c02a931146101955780636d6a6a4d146101b3576100ea565b8063095ea7b3146100ef57806318160ddd1461011f5780632004ffd91461013d575b600080fd5b61010960048036038101906101049190610b62565b6102c3565b6040516101169190610bbd565b60405180910390f35b6101276103b1565b6040516101349190610be7565b60405180910390f35b6101456103b7565b005b610161600480360381019061015c9190610c02565b6103c1565b60405161016e9190610bbd565b60405180910390f35b61017f6105f1565b60405161018c9190610be7565b60405180910390f35b61019d6105f7565b6040516101aa9190610cee565b60405180910390f35b6101bb610685565b6040516101c89190610be7565b60405180910390f35b6101eb60048036038101906101e69190610d10565b61068b565b6040516101f89190610be7565b60405180910390f35b6102096106a3565b005b6102136106b7565b6040516102209190610d4c565b60405180910390f35b6102316106e0565b60405161023e9190610cee565b60405180910390f35b610261600480360381019061025c9190610b62565b61076e565b60405161026e9190610bbd565b60405180910390f35b610291600480360381019061028c9190610d67565b6108d7565b60405161029e9190610be7565b60405180910390f35b6102c160048036038101906102bc9190610d10565b6108fc565b005b600081600760003373ffffffffffffffffffffffffffffffffffffffff1673ffffffffffffffffffffffffffffffffffffffff16815260200190815260200160002060008573ffffffffffffffffffffffffffffffffffffffff1673ffffffffffffffffffffffffffffffffffffffff168152602001908152602001600020819055508273ffffffffffffffffffffffffffffffffffffffff163373ffffffffffffffffffffffffffffffffffffffff167f8c5be1e5ebec7d5bd14f71427d1e84f3dd0314c0f7b2291e5b200ac8c7c3b925846040516103a39190610be7565b60405180910390a392915050565b60055481565b6103bf61097f565b565b6000600660008573ffffffffffffffffffffffffffffffffffffffff1673ffffffffffffffffffffffffffffffffffffffff1681526020019081526020016000205482111561040f57600080fd5b600760008573ffffffffffffffffffffffffffffffffffffffff1673ffffffffffffffffffffffffffffffffffffffff16815260200190815260200160002060003373ffffffffffffffffffffffffffffffffffffffff1673ffffffffffffffffffffffffffffffffffffffff1681526020019081526020016000205482111561049857600080fd5b81600660008573ffffffffffffffffffffffffffffffffffffffff1673ffffffffffffffffffffffffffffffffffffffff16815260200190815260200160002060008282546104e79190610dd6565b9250508190555081600760008673ffffffffffffffffffffffffffffffffffffffff1673ffffffffffffffffffffffffffffffffffffffff16815260200190815260200160002060003373ffffffffffffffffffffffffffffffffffffffff1673ffffffffffffffffffffffffffffffffffffffff168152602001908152602001600020600082825461057a9190610e2c565b925050819055508273ffffffffffffffffffffffffffffffffffffffff168473ffffffffffffffffffffffffffffffffffffffff167fddf252ad1be2c89b69c2b068fc378daa952ba7f163c4a11628f55a4df523b3ef846040516105de9190610be7565b60405180910390a3600190509392505050565b60035481565b6001805461060490610e8f565b80601f016020809104026020016040519081016040528092919081815260200182805461063090610e8f565b801561067d5780601f106106525761010080835404028352916020019161067d565b820191906000526020600020905b81548152906001019060200180831161066057829003601f168201915b505050505081565b60045481565b60066020528060005260406000206000915090505481565b6106ab61097f565b6106b560006109fd565b565b60008060009054906101000a900473ffffffffffffffffffffffffffffffffffffffff16905090565b600280546106ed90610e8f565b80601f016020809104026020016040519081016040528092919081815260200182805461071990610e8f565b80156107665780601f1061073b57610100808354040283529160200191610766565b820191906000526020600020905b81548152906001019060200180831161074957829003601f168201915b505050505081565b600081600660003373ffffffffffffffffffffffffffffffffffffffff1673ffffffffffffffffffffffffffffffffffffffff1681526020019081526020016000205410156107bc57600080fd5b81600660003373ffffffffffffffffffffffffffffffffffffffff1673ffffffffffffffffffffffffffffffffffffffff168152602001908152602001600020600082825461080b9190610e2c565b9250508190555081600660008573ffffffffffffffffffffffffffffffffffffffff1673ffffffffffffffffffffffffffffffffffffffff16815260200190815260200160002060008282546108619190610dd6565b925050819055508273ffffffffffffffffffffffffffffffffffffffff163373ffffffffffffffffffffffffffffffffffffffff167fddf252ad1be2c89b69c2b068fc378daa952ba7f163c4a11628f55a4df523b3ef846040516108c59190610be7565b60405180910390a36001905092915050565b6007602052816000526040600020602052806000526040600020600091509150505481565b61090461097f565b600073ffffffffffffffffffffffffffffffffffffffff168173ffffffffffffffffffffffffffffffffffffffff1603610973576040517f08c379a000000000000000000000000000000000000000000000000000000000815260040161096a90610f32565b60405180910390fd5b61097c816109fd565b50565b610987610ac1565b73ffffffffffffffffffffffffffffffffffffffff166109a56106b7565b73ffffffffffffffffffffffffffffffffffffffff16146109fb576040517f08c379a00000000000000000000000000000000000000000000000000000000081526004016109f290610f9e565b60405180910390fd5b565b60008060009054906101000a900473ffffffffffffffffffffffffffffffffffffffff169050816000806101000a81548173ffffffffffffffffffffffffffffffffffffffff021916908373ffffffffffffffffffffffffffffffffffffffff1602179055508173ffffffffffffffffffffffffffffffffffffffff168173ffffffffffffffffffffffffffffffffffffffff167f8be0079c531659141344cd1fd0a4f28419497f9722a3daafe3b4186f6b6457e060405160405180910390a35050565b600033905090565b600080fd5b600073ffffffffffffffffffffffffffffffffffffffff82169050919050565b6000610af982610ace565b9050919050565b610b0981610aee565b8114610b1457600080fd5b50565b600081359050610b2681610b00565b92915050565b6000819050919050565b610b3f81610b2c565b8114610b4a57600080fd5b50565b600081359050610b5c81610b36565b92915050565b60008060408385031215610b7957610b78610ac9565b5b6000610b8785828601610b17565b9250506020610b9885828601610b4d565b9150509250929050565b60008115159050919050565b610bb781610ba2565b82525050565b6000602082019050610bd26000830184610bae565b92915050565b610be181610b2c565b82525050565b6000602082019050610bfc6000830184610bd8565b92915050565b600080600060608486031215610c1b57610c1a610ac9565b5b6000610c2986828701610b17565b9350506020610c3a86828701610b17565b9250506040610c4b86828701610b4d565b9150509250925092565b600081519050919050565b600082825260208201905092915050565b60005b83811015610c8f578082015181840152602081019050610c74565b83811115610c9e576000848401525b50505050565b6000601f19601f8301169050919050565b6000610cc082610c55565b610cca8185610c60565b9350610cda818560208601610c71565b610ce381610ca4565b840191505092915050565b60006020820190508181036000830152610d088184610cb5565b905092915050565b600060208284031215610d2657610d25610ac9565b5b6000610d3484828501610b17565b91505092915050565b610d4681610aee565b82525050565b6000602082019050610d616000830184610d3d565b92915050565b60008060408385031215610d7e57610d7d610ac9565b5b6000610d8c85828601610b17565b9250506020610d9d85828601610b17565b9150509250929050565b7f4e487b7100000000000000000000000000000000000000000000000000000000600052601160045260246000fd5b6000610de182610b2c565b9150610dec83610b2c565b9250827fffffffffffffffffffffffffffffffffffffffffffffffffffffffffffffffff03821115610e2157610e20610da7565b5b828201905092915050565b6000610e3782610b2c565b9150610e4283610b2c565b925082821015610e5557610e54610da7565b5b828203905092915050565b7f4e487b7100000000000000000000000000000000000000000000000000000000600052602260045260246000fd5b60006002820490506001821680610ea757607f821691505b602082108103610eba57610eb9610e60565b5b50919050565b7f4f776e61626c653a206e6577206f776e657220697320746865207a65726f206160008201527f6464726573730000000000000000000000000000000000000000000000000000602082015250565b6000610f1c602683610c60565b9150610f2782610ec0565b604082019050919050565b60006020820190508181036000830152610f4b81610f0f565b9050919050565b7f4f776e61626c653a2063616c6c6572206973206e6f7420746865206f776e6572600082015250565b6000610f88602083610c60565b9150610f9382610f52565b602082019050919050565b60006020820190508181036000830152610fb781610f7b565b905091905056fea26469706673582212206985421bd980ea7623c5a22ebc1e93d36e3f63551ef8e95b44d27b1de88da99a64736f6c634300080d0033",
  "immutableReferences": {},
  "source": "// SPDX-License-Identifier: MIT\r\npragma solidity ^0.8.13;\r\n\r\n// imports\r\nimport \"@openzeppelin/contracts/utils/math/SafeMath.sol\";\r\nimport \"@openzeppelin/contracts/access/Ownable.sol\";\r\n\r\n\r\ncontract web3ClubsToken is Ownable {\r\n      using SafeMath for uint256;\r\n\r\n    // global Var\r\n    string public tokenName = \"web3ClubsToken\";\r\n    string public symbol = \"WCT\";\r\n    uint public decimals = 18; // 0.000000000000000009 // 9000000000000000000\r\n    uint public decimalFactor = 10 ** uint256(decimals);  // 10^18 10^2 0.00\r\n    uint public totalSupply = 1000000 * decimalFactor; // 0.00000000001\r\n    // uint public balanceOf; // balance of address\r\n\r\n    event Transfer(address indexed _from, address indexed _to, uint256 _amount);\r\n    event Approval(address indexed _owner, address indexed _spender, uint256 _value);\r\n    \r\n\r\n    // mapping \r\n    mapping(address => uint256) public balanceOf;\r\n    mapping(address => mapping(address => uint256)) public allowance;\r\n\r\n    constructor() {\r\n      balanceOf[msg.sender] = totalSupply;\r\n    }\r\n\r\n\r\n    // todo add safemath method for subtractions and addition\r\n    function transfer(address _to, uint256 _value ) public returns (bool success) {\r\n        require(balanceOf[msg.sender] >= _value);\r\n        balanceOf[msg.sender] -= _value;\r\n        balanceOf[_to] += _value;\r\n        emit Transfer(msg.sender, _to, _value);\r\n        return true;\r\n    }\r\n\r\n    function approve(address _spender, uint _value) public returns (bool success) {\r\n      allowance[msg.sender][_spender] = _value;\r\n      emit Approval(msg.sender, _spender, _value);\r\n      return success;\r\n    }\r\n\r\n    // todo add safemath for  sub and addition \r\n    function transferFrom(address _from, address _to, uint256 _value) public returns (bool success) {\r\n        require(_value <= balanceOf[_from]);\r\n        require(_value <= allowance[_from][msg.sender]);\r\n        balanceOf[_to] += _value;\r\n        allowance[_from][msg.sender] -= _value;\r\n        emit Transfer(_from, _to, _value);\r\n        return true;\r\n  \r\n    }\r\n    \r\n    // do your own implementation\r\n    function mintToken() public view  onlyOwner {\r\n\r\n    }\r\n\r\n\r\n\r\n\r\n    \r\n}\r\n\r\n\r\n\r\n\r\n\r\n\r\n",
  "sourcePath": "C:\\Users\\Admin\\Desktop\\FinalToken\\contracts\\Web3ClubsToken.sol",
  "compiler": {
    "name": "solc",
    "version": "0.8.13+commit.abaa5c0e.Emscripten.clang"
  },
  "schemaVersion": "3.4.13",
  "updatedAt": "2023-04-24T17:25:09.563Z",
  "devdoc": {
    "kind": "dev",
    "methods": {
      "owner()": {
        "details": "Returns the address of the current owner."
      },
      "renounceOwnership()": {
        "details": "Leaves the contract without owner. It will not be possible to call `onlyOwner` functions anymore. Can only be called by the current owner. NOTE: Renouncing ownership will leave the contract without an owner, thereby removing any functionality that is only available to the owner."
      },
      "transferOwnership(address)": {
        "details": "Transfers ownership of the contract to a new account (`newOwner`). Can only be called by the current owner."
      }
    },
    "version": 1
  },
  "userdoc": {
    "kind": "user",
    "methods": {},
    "version": 1
  }
}